{
  "contractName": "Tournaments",
  "abi": [
    {
      "constant": true,
      "inputs": [
        {
          "name": "",
          "type": "uint256"
        }
      ],
      "name": "tournaments",
      "outputs": [
        {
          "name": "name",
          "type": "string"
        },
        {
          "name": "winner",
          "type": "string"
        }
      ],
      "payable": false,
      "stateMutability": "view",
      "type": "function"
    },
    {
      "constant": false,
      "inputs": [
        {
          "name": "_name",
          "type": "string"
        },
        {
          "name": "_winner",
          "type": "string"
        }
      ],
      "name": "addTournament",
      "outputs": [],
      "payable": false,
      "stateMutability": "nonpayable",
      "type": "function"
    },
    {
      "constant": true,
      "inputs": [],
      "name": "getTournamentCount",
      "outputs": [
        {
          "name": "",
          "type": "uint256"
        }
      ],
      "payable": false,
      "stateMutability": "view",
      "type": "function"
    },
    {
      "constant": true,
      "inputs": [
        {
          "name": "index",
          "type": "uint256"
        }
      ],
      "name": "getTournament",
      "outputs": [
        {
          "name": "",
          "type": "string"
        },
        {
          "name": "",
          "type": "string"
        }
      ],
      "payable": false,
      "stateMutability": "view",
      "type": "function"
    }
  ],
  "bytecode": "0x608060405234801561001057600080fd5b50610779806100206000396000f3fe6080604052600436106100615763ffffffff7c0100000000000000000000000000000000000000000000000000000000600035041663078c51f081146100665780631a5bd7fc1461008d5780637503e1b7146101955780639e3ec1d7146101bf575b600080fd5b34801561007257600080fd5b5061007b6102fb565b60408051918252519081900360200190f35b34801561009957600080fd5b506100b7600480360360208110156100b057600080fd5b5035610302565b604051808060200180602001838103835285818151815260200191508051906020019080838360005b838110156100f85781810151838201526020016100e0565b50505050905090810190601f1680156101255780820380516001836020036101000a031916815260200191505b50838103825284518152845160209182019186019080838360005b83811015610158578181015183820152602001610140565b50505050905090810190601f1680156101855780820380516001836020036101000a031916815260200191505b5094505050505060405180910390f35b3480156101a157600080fd5b506100b7600480360360208110156101b857600080fd5b50356104e9565b3480156101cb57600080fd5b506102f9600480360360408110156101e257600080fd5b8101906020810181356401000000008111156101fd57600080fd5b82018360208201111561020f57600080fd5b8035906020019184600183028401116401000000008311171561023157600080fd5b91908080601f016020809104026020016040519081016040528093929190818152602001838380828437600092019190915250929594936020810193503591505064010000000081111561028457600080fd5b82018360208201111561029657600080fd5b803590602001918460018302840111640100000000831117156102b857600080fd5b91908080601f016020809104026020016040519081016040528093929190818152602001838380828437600092019190915250929550610635945050505050565b005b6000545b90565b6000546060908190831061037757604080517f08c379a000000000000000000000000000000000000000000000000000000000815260206004820152601360248201527f496e646578206f7574206f6620626f756e647300000000000000000000000000604482015290519081900360640190fd5b600080548490811061038557fe5b90600052602060002090600202016000016000848154811015156103a557fe5b9060005260206000209060020201600101818054600181600116156101000203166002900480601f01602080910402602001604051908101604052809291908181526020018280546001816001161561010002031660029004801561044b5780601f106104205761010080835404028352916020019161044b565b820191906000526020600020905b81548152906001019060200180831161042e57829003601f168201915b5050845460408051602060026001851615610100026000190190941693909304601f8101849004840282018401909252818152959750869450925084019050828280156104d95780601f106104ae576101008083540402835291602001916104d9565b820191906000526020600020905b8154815290600101906020018083116104bc57829003601f168201915b5050505050905091509150915091565b60008054829081106104f757fe5b60009182526020918290206002918202018054604080516001831615610100026000190190921693909304601f81018590048502820185019093528281529093509183919083018282801561058d5780601f106105625761010080835404028352916020019161058d565b820191906000526020600020905b81548152906001019060200180831161057057829003601f168201915b505050505090806001018054600181600116156101000203166002900480601f01602080910402602001604051908101604052809291908181526020018280546001816001161561010002031660029004801561062b5780601f106106005761010080835404028352916020019161062b565b820191906000526020600020905b81548152906001019060200180831161060e57829003601f168201915b5050505050905082565b60408051808201909152828152602080820183905260008054600181018083559180528351805192949360029092027f290decd9548b62a8d60345a988386fc84ba6bc95484008f6362f93160ef3e563019261069492849201906106b5565b5060208281015180516106ad92600185019201906106b5565b505050505050565b828054600181600116156101000203166002900490600052602060002090601f016020900481019282601f106106f657805160ff1916838001178555610723565b82800160010185558215610723579182015b82811115610723578251825591602001919060010190610708565b5061072f929150610733565b5090565b6102ff91905b8082111561072f576000815560010161073956fea165627a7a72305820608808589b3d512f0304a113d6844db14b7458c57bf2ff45f4574a379595bbf10029",
  "source": "// SPDX-License-Identifier: GPL-3.0\npragma solidity ^0.5.0;\n\ncontract Tournaments {\n    struct Tournament {\n        string name;\n        string winner;\n    }\n    \n    // Array to store tournaments\n    Tournament[] public tournaments;\n    \n    // Function to add a new tournament\n    function addTournament(string memory _name, string memory _winner) public {\n        tournaments.push(Tournament(_name, _winner));\n    }\n    \n    // Function to get the total number of tournaments\n    function getTournamentCount() public view returns (uint) {\n        return tournaments.length;\n    }\n    \n    // Function to get tournament details by index\n    function getTournament(uint index) public view returns (string memory, string memory) {\n        require(index < tournaments.length, \"Index out of bounds\");\n        return (tournaments[index].name, tournaments[index].winner);\n    }\n}\n",
  "sourcePath": "/Users/andorgunczer/WORK/MISC/BLOCKCHAIN/transcendence_local/contracts/Tournaments.sol",
  "compiler": {
    "name": "solc",
    "version": "0.5.0+commit.1d4f565a.Emscripten.clang"
  },
  "schemaVersion": "3.4.16",
  "updatedAt": "2024-07-17T07:57:13.629Z",
  "devdoc": {
    "methods": {}
  },
  "userdoc": {
    "methods": {}
  }
}