{
  "contractName": "Tournaments",
  "abi": [
    {
      "constant": true,
      "inputs": [
        {
          "name": "",
          "type": "uint256"
        }
      ],
      "name": "tournaments",
      "outputs": [
        {
          "name": "name",
          "type": "string"
        },
        {
          "name": "winner",
          "type": "string"
        }
      ],
      "payable": false,
      "stateMutability": "view",
      "type": "function"
    },
    {
      "constant": false,
      "inputs": [
        {
          "name": "_name",
          "type": "string"
        },
        {
          "name": "_winner",
          "type": "string"
        }
      ],
      "name": "addTournament",
      "outputs": [],
      "payable": false,
      "stateMutability": "nonpayable",
      "type": "function"
    },
    {
      "constant": false,
      "inputs": [
        {
          "name": "index",
          "type": "uint256"
        },
        {
          "name": "participant",
          "type": "string"
        }
      ],
      "name": "addParticipant",
      "outputs": [],
      "payable": false,
      "stateMutability": "nonpayable",
      "type": "function"
    },
    {
      "constant": false,
      "inputs": [
        {
          "name": "index",
          "type": "uint256"
        },
        {
          "name": "participant",
          "type": "string"
        },
        {
          "name": "score",
          "type": "int256"
        }
      ],
      "name": "incrementScore",
      "outputs": [],
      "payable": false,
      "stateMutability": "nonpayable",
      "type": "function"
    },
    {
      "constant": false,
      "inputs": [
        {
          "name": "index",
          "type": "uint256"
        },
        {
          "name": "_winner",
          "type": "string"
        }
      ],
      "name": "setWinner",
      "outputs": [],
      "payable": false,
      "stateMutability": "nonpayable",
      "type": "function"
    },
    {
      "constant": true,
      "inputs": [],
      "name": "getTournamentCount",
      "outputs": [
        {
          "name": "",
          "type": "uint256"
        }
      ],
      "payable": false,
      "stateMutability": "view",
      "type": "function"
    },
    {
      "constant": true,
      "inputs": [
        {
          "name": "index",
          "type": "uint256"
        }
      ],
      "name": "getTournament",
      "outputs": [
        {
          "name": "",
          "type": "string"
        },
        {
          "name": "",
          "type": "string"
        }
      ],
      "payable": false,
      "stateMutability": "view",
      "type": "function"
    },
    {
      "constant": true,
      "inputs": [
        {
          "name": "index",
          "type": "uint256"
        },
        {
          "name": "participant",
          "type": "string"
        }
      ],
      "name": "getParticipantScore",
      "outputs": [
        {
          "name": "",
          "type": "int256"
        }
      ],
      "payable": false,
      "stateMutability": "view",
      "type": "function"
    },
    {
      "constant": true,
      "inputs": [
        {
          "name": "index",
          "type": "uint256"
        }
      ],
      "name": "getParticipantList",
      "outputs": [
        {
          "name": "",
          "type": "string[]"
        }
      ],
      "payable": false,
      "stateMutability": "view",
      "type": "function"
    },
    {
      "constant": true,
      "inputs": [
        {
          "name": "_name",
          "type": "string"
        }
      ],
      "name": "getTournamentIndexByName",
      "outputs": [
        {
          "name": "",
          "type": "uint256"
        }
      ],
      "payable": false,
      "stateMutability": "view",
      "type": "function"
    }
  ],
  "bytecode": "0x608060405234801561001057600080fd5b506111b3806100206000396000f3fe6080604052600436106100a35763ffffffff7c0100000000000000000000000000000000000000000000000000000000600035041663041f332781146100a8578063078c51f0146100ca5780630b69c265146100f55780631a5bd7fc146101155780634a030008146101435780636f94a200146101635780637503e1b7146101835780637d8470cb146101a35780639e3ec1d7146101c3578063ea7870e2146101e3575b600080fd5b3480156100b457600080fd5b506100c86100c3366004610eab565b610210565b005b3480156100d657600080fd5b506100df610276565b6040516100ec919061107b565b60405180910390f35b34801561010157600080fd5b506100df610110366004610de7565b61027d565b34801561012157600080fd5b50610135610130366004610e8d565b6103c8565b6040516100ec929190611089565b34801561014f57600080fd5b506100df61015e366004610eab565b610563565b34801561016f57600080fd5b506100c861017e366004610eca565b6106b3565b34801561018f57600080fd5b5061013561019e366004610e8d565b610808565b3480156101af57600080fd5b506100c86101be366004610eab565b610957565b3480156101cf57600080fd5b506100c86101de366004610e24565b610a4b565b3480156101ef57600080fd5b506102036101fe366004610e8d565b610ae7565b6040516100ec919061106a565b600054821061023d5760405160e560020a62461bcd028152600401610234906110ce565b60405180910390fd5b8060008381548110151561024d57fe5b90600052602060002090600402016001019080519060200190610271929190610c03565b505050565b6000545b90565b6000805b6000548110156103a757826040516020018082805190602001908083835b602083106102be5780518252601f19909201916020918201910161029f565b6001836020036101000a0380198251168184511680821785525050505050509050019150506040516020818303038152906040528051906020012060008281548110151561030857fe5b906000526020600020906004020160000160405160200180828054600181600116156101000203166002900480156103775780601f10610355576101008083540402835291820191610377565b820191906000526020600020905b815481529060010190602001808311610363575b505091505060405160208183030381529060405280519060200120141561039f5790506103c3565b600101610281565b5060405160e560020a62461bcd028152600401610234906110ae565b919050565b600054606090819083106103f15760405160e560020a62461bcd028152600401610234906110ce565b60008054849081106103ff57fe5b906000526020600020906004020160000160008481548110151561041f57fe5b9060005260206000209060040201600101818054600181600116156101000203166002900480601f0160208091040260200160405190810160405280929190818152602001828054600181600116156101000203166002900480156104c55780601f1061049a576101008083540402835291602001916104c5565b820191906000526020600020905b8154815290600101906020018083116104a857829003601f168201915b5050845460408051602060026001851615610100026000190190941693909304601f8101849004840282018401909252818152959750869450925084019050828280156105535780601f1061052857610100808354040283529160200191610553565b820191906000526020600020905b81548152906001019060200180831161053657829003601f168201915b5050505050905091509150915091565b6000805483106105885760405160e560020a62461bcd028152600401610234906110ce565b6000808481548110151561059857fe5b9060005260206000209060040201600201836040518082805190602001908083835b602083106105d95780518252601f1990920191602091820191016105ba565b51815160209384036101000a60001901801990921691161790529201948552506040519384900301909220549290921215915061062d90505760405160e560020a62461bcd028152600401610234906110be565b600080548490811061063b57fe5b9060005260206000209060040201600201826040518082805190602001908083835b6020831061067c5780518252601f19909201916020918201910161065d565b51815160209384036101000a6000190180199092169116179052920194855250604051938490030190922054925050505b92915050565b60005483106106d75760405160e560020a62461bcd028152600401610234906110ce565b600080848154811015156106e757fe5b9060005260206000209060040201600201836040518082805190602001908083835b602083106107285780518252601f199092019160209182019101610709565b51815160209384036101000a60001901801990921691161790529201948552506040519384900301909220549290921215915061077c90505760405160e560020a62461bcd028152600401610234906110be565b8060008481548110151561078c57fe5b9060005260206000209060040201600201836040518082805190602001908083835b602083106107cd5780518252601f1990920191602091820191016107ae565b51815160209384036101000a600019018019909216911617905292019485525060405193849003019092208054939093019092555050505050565b600080548290811061081657fe5b60009182526020918290206004919091020180546040805160026001841615610100026000190190931692909204601f8101859004850283018501909152808252919350918391908301828280156108af5780601f10610884576101008083540402835291602001916108af565b820191906000526020600020905b81548152906001019060200180831161089257829003601f168201915b505050505090806001018054600181600116156101000203166002900480601f01602080910402602001604051908101604052809291908181526020018280546001816001161561010002031660029004801561094d5780601f106109225761010080835404028352916020019161094d565b820191906000526020600020905b81548152906001019060200180831161093057829003601f168201915b5050505050905082565b600054821061097b5760405160e560020a62461bcd028152600401610234906110ce565b6000808381548110151561098b57fe5b9060005260206000209060040201600201826040518082805190602001908083835b602083106109cc5780518252601f1990920191602091820191016109ad565b51815160209384036101000a600019018019909216911617905292019485525060405193849003019092209290925550506000805483908110610a0b57fe5b600091825260208083206003600490930201919091018054600181018083559184529282902084519193610a459391019190850190610c03565b50505050565b610a53610c81565b82815260208082018390526000805460018101808355918052835180519293859360049093027f290decd9548b62a8d60345a988386fc84ba6bc95484008f6362f93160ef3e5630192610aa99284920190610c03565b506020828101518051610ac29260018501920190610c03565b5060408201518051610ade916003840191602090910190610ca3565b50505050505050565b6000546060908210610b0e5760405160e560020a62461bcd028152600401610234906110ce565b6000805483908110610b1c57fe5b9060005260206000209060040201600301805480602002602001604051908101604052809291908181526020016000905b82821015610bf85760008481526020908190208301805460408051601f6002600019610100600187161502019094169390930492830185900485028101850190915281815292830182828015610be45780601f10610bb957610100808354040283529160200191610be4565b820191906000526020600020905b815481529060010190602001808311610bc757829003601f168201915b505050505081526020019060010190610b4d565b505050509050919050565b828054600181600116156101000203166002900490600052602060002090601f016020900481019282601f10610c4457805160ff1916838001178555610c71565b82800160010185558215610c71579182015b82811115610c71578251825591602001919060010190610c56565b50610c7d929150610cfc565b5090565b6060604051908101604052806060815260200160608152602001606081525090565b828054828255906000526020600020908101928215610cf0579160200282015b82811115610cf05782518051610ce0918491602090910190610c03565b5091602001919060010190610cc3565b50610c7d929150610d16565b61027a91905b80821115610c7d5760008155600101610d02565b61027a91905b80821115610c7d576000610d308282610d39565b50600101610d1c565b50805460018160011615610100020316600290046000825580601f10610d5f5750610d7d565b601f016020900490600052602060002090810190610d7d9190610cfc565b50565b6000610d8c823561027a565b9392505050565b6000601f82018313610da457600080fd5b8135610db7610db282611105565b6110de565b91508082526020830160208301858383011115610dd357600080fd5b610dde838284611137565b50505092915050565b600060208284031215610df957600080fd5b813567ffffffffffffffff811115610e1057600080fd5b610e1c84828501610d93565b949350505050565b60008060408385031215610e3757600080fd5b823567ffffffffffffffff811115610e4e57600080fd5b610e5a85828601610d93565b925050602083013567ffffffffffffffff811115610e7757600080fd5b610e8385828601610d93565b9150509250929050565b600060208284031215610e9f57600080fd5b6000610e1c8484610d80565b60008060408385031215610ebe57600080fd5b6000610e5a8585610d80565b600080600060608486031215610edf57600080fd5b6000610eeb8686610d80565b935050602084013567ffffffffffffffff811115610f0857600080fd5b610f1486828701610d93565b9250506040610f2586828701610d80565b9150509250925092565b6000610f3a82611133565b80845260208401935083602082028501610f538561112d565b60005b84811015610f8a578383038852610f6e838351610fa5565b9250610f798261112d565b602098909801979150600101610f56565b50909695505050505050565b610f9f8161027a565b82525050565b6000610fb082611133565b808452610fc4816020860160208601611143565b610fcd8161116f565b9093016020019392505050565b601481527f546f75726e616d656e74206e6f7420666f756e64000000000000000000000000602082015260400190565b601a81527f5061727469636970616e7420646f6573206e6f74206578697374000000000000602082015260400190565b601381527f496e646578206f7574206f6620626f756e647300000000000000000000000000602082015260400190565b60208082528101610d8c8184610f2f565b602081016106ad8284610f96565b6040808252810161109a8185610fa5565b90508181036020830152610e1c8184610fa5565b602080825281016106ad81610fda565b602080825281016106ad8161100a565b602080825281016106ad8161103a565b60405181810167ffffffffffffffff811182821017156110fd57600080fd5b604052919050565b600067ffffffffffffffff82111561111c57600080fd5b506020601f91909101601f19160190565b60200190565b5190565b82818337506000910152565b60005b8381101561115e578181015183820152602001611146565b83811115610a455750506000910152565b601f01601f19169056fea265627a7a7230582094194d900bb5568a262dfd8181377ffec6992d24db544eae9f509507adc6f95b6c6578706572696d656e74616cf50037",
  "source": "// SPDX-License-Identifier: GPL-3.0\npragma solidity ^0.5.0;\npragma experimental ABIEncoderV2;\n\ncontract Tournaments {\n    struct Tournament {\n        string name;\n        string winner;\n        mapping(string => int) participants;\n        string[] participantList;\n    }\n    \n    Tournament[] public tournaments;\n    \n    // Function to add a new tournament\n    function addTournament(string memory _name, string memory _winner) public {\n        Tournament memory newTournament;\n        newTournament.name = _name;\n        newTournament.winner = _winner;\n        tournaments.push(newTournament);\n    }\n    \n    // Function to add a participant to a tournament\n    function addParticipant(uint index, string memory participant) public {\n        require(index < tournaments.length, \"Index out of bounds\");\n        tournaments[index].participants[participant] = 0;\n        tournaments[index].participantList.push(participant);\n    }\n    \n    // Function to increment the score of a participant in a tournament\n    function incrementScore(uint index, string memory participant, int score) public {\n        require(index < tournaments.length, \"Index out of bounds\");\n        require(tournaments[index].participants[participant] >= 0, \"Participant does not exist\");\n        tournaments[index].participants[participant] += score;\n    }\n    \n    // Function to set the winner of a tournament\n    function setWinner(uint index, string memory _winner) public {\n        require(index < tournaments.length, \"Index out of bounds\");\n        tournaments[index].winner = _winner;\n    }\n    \n    // Function to get the total number of tournaments\n    function getTournamentCount() public view returns (uint) {\n        return tournaments.length;\n    }\n    \n    // Function to get tournament details by index\n    function getTournament(uint index) public view returns (string memory, string memory) {\n        require(index < tournaments.length, \"Index out of bounds\");\n        return (tournaments[index].name, tournaments[index].winner);\n    }\n\n    // Function to get the score of a participant in a tournament\n    function getParticipantScore(uint index, string memory participant) public view returns (int) {\n        require(index < tournaments.length, \"Index out of bounds\");\n        require(tournaments[index].participants[participant] >= 0, \"Participant does not exist\");\n        return tournaments[index].participants[participant];\n    }\n    \n    // Function to get the list of participants in a tournament\n    function getParticipantList(uint index) public view returns (string[] memory) {\n        require(index < tournaments.length, \"Index out of bounds\");\n        return tournaments[index].participantList;\n    }\n    \n    // Function to get the index of a tournament by name\n    function getTournamentIndexByName(string memory _name) public view returns (uint) {\n        for (uint i = 0; i < tournaments.length; i++) {\n            if (keccak256(abi.encodePacked(tournaments[i].name)) == keccak256(abi.encodePacked(_name))) {\n                return i;\n            }\n        }\n        revert(\"Tournament not found\");\n    }\n}\n",
  "sourcePath": "/Users/andorgunczer/WORK/SCHOOL/fresh_trans/blockchain/contracts/Tournaments.sol",
  "compiler": {
    "name": "solc",
    "version": "0.5.0+commit.1d4f565a.Emscripten.clang"
  },
  "schemaVersion": "3.4.16",
  "updatedAt": "2024-08-06T06:56:52.832Z",
  "devdoc": {
    "methods": {}
  },
  "userdoc": {
    "methods": {}
  }
}